{
  "contractName": "ERC20TokenFaucet",
  "abi": [
    {
      "constant": true,
      "inputs": [],
      "name": "erc20token",
      "outputs": [
        {
          "internalType": "contract IERC20",
          "name": "",
          "type": "address"
        }
      ],
      "payable": false,
      "stateMutability": "view",
      "type": "function"
    },
    {
      "constant": true,
      "inputs": [],
      "name": "owner",
      "outputs": [
        {
          "internalType": "address payable",
          "name": "",
          "type": "address"
        }
      ],
      "payable": false,
      "stateMutability": "view",
      "type": "function"
    },
    {
      "constant": true,
      "inputs": [],
      "name": "maxWithdraw",
      "outputs": [
        {
          "internalType": "uint256",
          "name": "",
          "type": "uint256"
        }
      ],
      "payable": false,
      "stateMutability": "view",
      "type": "function"
    },
    {
      "inputs": [
        {
          "internalType": "uint256",
          "name": "_maxWithdraw",
          "type": "uint256"
        },
        {
          "internalType": "contract IERC20",
          "name": "_faucetToken",
          "type": "address"
        }
      ],
      "payable": false,
      "stateMutability": "nonpayable",
      "type": "constructor"
    },
    {
      "constant": false,
      "inputs": [],
      "name": "requestToken",
      "outputs": [],
      "payable": false,
      "stateMutability": "nonpayable",
      "type": "function"
    },
    {
      "constant": false,
      "inputs": [],
      "name": "destruct",
      "outputs": [],
      "payable": false,
      "stateMutability": "nonpayable",
      "type": "function"
    }
  ],
  "bytecode": "0x608060405234801561001057600080fd5b506040516105bd3803806105bd8339818101604052604081101561003357600080fd5b8101908080519060200190929190805190602001909291905050508160008190555080600260006101000a81548173ffffffffffffffffffffffffffffffffffffffff021916908373ffffffffffffffffffffffffffffffffffffffff16021790555033600160006101000a81548173ffffffffffffffffffffffffffffffffffffffff021916908373ffffffffffffffffffffffffffffffffffffffff16021790555050506104d5806100e86000396000f3fe608060405234801561001057600080fd5b50600436106100575760003560e01c80631dcea4271461005c5780632b68b9c6146100a65780634d7ec628146100b05780638da5cb5b146100ba578063ac7a1b5b14610104575b600080fd5b610064610122565b604051808273ffffffffffffffffffffffffffffffffffffffff1673ffffffffffffffffffffffffffffffffffffffff16815260200191505060405180910390f35b6100ae610148565b005b6100b8610246565b005b6100c2610474565b604051808273ffffffffffffffffffffffffffffffffffffffff1673ffffffffffffffffffffffffffffffffffffffff16815260200191505060405180910390f35b61010c61049a565b6040518082815260200191505060405180910390f35b600260009054906101000a900473ffffffffffffffffffffffffffffffffffffffff1681565b600160009054906101000a900473ffffffffffffffffffffffffffffffffffffffff1673ffffffffffffffffffffffffffffffffffffffff163373ffffffffffffffffffffffffffffffffffffffff161461020b576040517f08c379a000000000000000000000000000000000000000000000000000000000815260040180806020018281038252600a8152602001807f4f4e4c59204f574e45520000000000000000000000000000000000000000000081525060200191505060405180910390fd5b600160009054906101000a900473ffffffffffffffffffffffffffffffffffffffff1673ffffffffffffffffffffffffffffffffffffffff16ff5b600054600260009054906101000a900473ffffffffffffffffffffffffffffffffffffffff1673ffffffffffffffffffffffffffffffffffffffff166370a08231336040518263ffffffff1660e01b8152600401808273ffffffffffffffffffffffffffffffffffffffff1673ffffffffffffffffffffffffffffffffffffffff16815260200191505060206040518083038186803b1580156102e857600080fd5b505afa1580156102fc573d6000803e3d6000fd5b505050506040513d602081101561031257600080fd5b81019080805190602001909291905050501061032d57600080fd5b600260009054906101000a900473ffffffffffffffffffffffffffffffffffffffff1673ffffffffffffffffffffffffffffffffffffffff166323b872dd600160009054906101000a900473ffffffffffffffffffffffffffffffffffffffff16336000546040518463ffffffff1660e01b8152600401808473ffffffffffffffffffffffffffffffffffffffff1673ffffffffffffffffffffffffffffffffffffffff1681526020018373ffffffffffffffffffffffffffffffffffffffff1673ffffffffffffffffffffffffffffffffffffffff1681526020018281526020019350505050602060405180830381600087803b15801561042e57600080fd5b505af1158015610442573d6000803e3d6000fd5b505050506040513d602081101561045857600080fd5b810190808051906020019092919050505061047257600080fd5b565b600160009054906101000a900473ffffffffffffffffffffffffffffffffffffffff1681565b6000548156fea265627a7a723158208c1e88c86ea258f95da8e3211633ee5db5102f125530a9b51d79664005dba5fc64736f6c634300050b0032",
  "source": "pragma solidity 0.5.11;\n\nimport \"openzeppelin-solidity/contracts/token/ERC20/IERC20.sol\";\n\ncontract ERC20TokenFaucet {\n\n\tuint256 public maxWithdraw;\n\taddress payable public owner;\n\n\tIERC20 public erc20token;\n\n\tmodifier onlyOwner {\n\t\trequire(msg.sender == owner, \"ONLY OWNER\");\n\t\t_;\n\t}\n\n\tconstructor(uint256 _maxWithdraw, IERC20 _faucetToken) public {\n\t\tmaxWithdraw = _maxWithdraw;\n\t\terc20token = _faucetToken;\n\t\towner = msg.sender;\n\t}\n\n\tfunction requestToken() external {\n\t\trequire(erc20token.balanceOf(msg.sender) < maxWithdraw);\n\t\t// send over maxWithdraw\n\t\trequire(erc20token.transferFrom(owner, msg.sender, maxWithdraw));\n\t}\n\n\tfunction destruct() external onlyOwner {\n\t    selfdestruct(owner);\n\t}\n\n}",
  "sourcePath": "/home/poiresel/Documents/Git/AirSwapProtocol/astfaucet/contracts/ERC20TokenFaucet.sol",
  "compiler": {
    "name": "solc",
    "version": "0.5.11+commit.c082d0b4.Emscripten.clang"
  },
  "schemaVersion": "3.0.12",
  "updatedAt": "2019-08-29T17:44:08.620Z",
  "devdoc": {
    "methods": {}
  },
  "userdoc": {
    "methods": {}
  }
}